{
  "_format": "hh-sol-artifact-1",
  "contractName": "Confesster",
  "sourceName": "contracts/Confesster.sol",
  "abi": [
    {
      "inputs": [],
      "stateMutability": "nonpayable",
      "type": "constructor"
    },
    {
      "anonymous": false,
      "inputs": [
        {
          "indexed": false,
          "internalType": "uint256",
          "name": "id",
          "type": "uint256"
        },
        {
          "indexed": false,
          "internalType": "address",
          "name": "buyer",
          "type": "address"
        },
        {
          "indexed": false,
          "internalType": "address",
          "name": "author",
          "type": "address"
        },
        {
          "indexed": false,
          "internalType": "string",
          "name": "message",
          "type": "string"
        },
        {
          "indexed": false,
          "internalType": "uint256",
          "name": "timestamp",
          "type": "uint256"
        }
      ],
      "name": "CoffeeBought",
      "type": "event"
    },
    {
      "anonymous": false,
      "inputs": [
        {
          "indexed": false,
          "internalType": "uint256",
          "name": "id",
          "type": "uint256"
        },
        {
          "indexed": false,
          "internalType": "string",
          "name": "hash",
          "type": "string"
        },
        {
          "indexed": false,
          "internalType": "string",
          "name": "message",
          "type": "string"
        },
        {
          "indexed": false,
          "internalType": "string",
          "name": "category",
          "type": "string"
        },
        {
          "indexed": false,
          "internalType": "address",
          "name": "author",
          "type": "address"
        },
        {
          "indexed": false,
          "internalType": "uint256",
          "name": "timestamp",
          "type": "uint256"
        }
      ],
      "name": "ConfessionCreated",
      "type": "event"
    },
    {
      "inputs": [
        {
          "internalType": "address",
          "name": "_author",
          "type": "address"
        },
        {
          "internalType": "string",
          "name": "_message",
          "type": "string"
        }
      ],
      "name": "buyCoffee",
      "outputs": [],
      "stateMutability": "payable",
      "type": "function"
    },
    {
      "inputs": [],
      "name": "coffeePrice",
      "outputs": [
        {
          "internalType": "uint256",
          "name": "",
          "type": "uint256"
        }
      ],
      "stateMutability": "view",
      "type": "function"
    },
    {
      "inputs": [],
      "name": "coffeesCount",
      "outputs": [
        {
          "internalType": "uint256",
          "name": "_value",
          "type": "uint256"
        }
      ],
      "stateMutability": "view",
      "type": "function"
    },
    {
      "inputs": [
        {
          "internalType": "uint256",
          "name": "",
          "type": "uint256"
        }
      ],
      "name": "confessions",
      "outputs": [
        {
          "internalType": "uint256",
          "name": "id",
          "type": "uint256"
        },
        {
          "internalType": "string",
          "name": "hash",
          "type": "string"
        },
        {
          "internalType": "string",
          "name": "message",
          "type": "string"
        },
        {
          "internalType": "string",
          "name": "category",
          "type": "string"
        },
        {
          "internalType": "address",
          "name": "author",
          "type": "address"
        },
        {
          "internalType": "uint256",
          "name": "timestamp",
          "type": "uint256"
        }
      ],
      "stateMutability": "view",
      "type": "function"
    },
    {
      "inputs": [],
      "name": "confessionsCount",
      "outputs": [
        {
          "internalType": "uint256",
          "name": "_value",
          "type": "uint256"
        }
      ],
      "stateMutability": "view",
      "type": "function"
    },
    {
      "inputs": [
        {
          "internalType": "string",
          "name": "_message",
          "type": "string"
        },
        {
          "internalType": "string",
          "name": "_hash",
          "type": "string"
        },
        {
          "internalType": "string",
          "name": "_category",
          "type": "string"
        }
      ],
      "name": "createConfession",
      "outputs": [],
      "stateMutability": "nonpayable",
      "type": "function"
    },
    {
      "inputs": [],
      "name": "name",
      "outputs": [
        {
          "internalType": "string",
          "name": "",
          "type": "string"
        }
      ],
      "stateMutability": "view",
      "type": "function"
    }
  ],
  "bytecode": "0x60806040526040518060400160405280600a81526020017f436f6e666573737465720000000000000000000000000000000000000000000081525060009080519060200190620000519291906200017d565b503480156200005f57600080fd5b50620000ab6040518060400160405280601981526020017f4465706c6f79696e67206120436f6e666573737465722e2e2e00000000000000815250620000b160201b620008ff1760201c565b6200035a565b6200015181604051602401620000c89190620002d1565b6040516020818303038152906040527f41304fac000000000000000000000000000000000000000000000000000000007bffffffffffffffffffffffffffffffffffffffffffffffffffffffff19166020820180517bffffffffffffffffffffffffffffffffffffffffffffffffffffffff83818316178352505050506200015460201b60201c565b50565b60008151905060006a636f6e736f6c652e6c6f679050602083016000808483855afa5050505050565b8280546200018b9062000324565b90600052602060002090601f016020900481019282620001af5760008555620001fb565b82601f10620001ca57805160ff1916838001178555620001fb565b82800160010185558215620001fb579182015b82811115620001fa578251825591602001919060010190620001dd565b5b5090506200020a91906200020e565b5090565b5b80821115620002295760008160009055506001016200020f565b5090565b600081519050919050565b600082825260208201905092915050565b60005b83811015620002695780820151818401526020810190506200024c565b8381111562000279576000848401525b50505050565b6000601f19601f8301169050919050565b60006200029d826200022d565b620002a9818562000238565b9350620002bb81856020860162000249565b620002c6816200027f565b840191505092915050565b60006020820190508181036000830152620002ed818462000290565b905092915050565b7f4e487b7100000000000000000000000000000000000000000000000000000000600052602260045260246000fd5b600060028204905060018216806200033d57607f821691505b60208210811415620003545762000353620002f5565b5b50919050565b6112c4806200036a6000396000f3fe6080604052600436106100705760003560e01c806344ae465e1161004e57806344ae465e146100f657806366f6dbd9146101125780637cf7b9461461013d578063c3b4d25f1461017f57610070565b806306fdde03146100755780631c8a4038146100a05780632d852b1d146100cb575b600080fd5b34801561008157600080fd5b5061008a6101a8565b6040516100979190610b21565b60405180910390f35b3480156100ac57600080fd5b506100b5610236565b6040516100c29190610b5c565b60405180910390f35b3480156100d757600080fd5b506100e0610240565b6040516100ed9190610b5c565b60405180910390f35b610110600480360381019061010b9190610d1e565b61024c565b005b34801561011e57600080fd5b50610127610459565b6040516101349190610b5c565b60405180910390f35b34801561014957600080fd5b50610164600480360381019061015f9190610da6565b610465565b60405161017696959493929190610de2565b60405180910390f35b34801561018b57600080fd5b506101a660048036038101906101a19190610e58565b610659565b005b600080546101b590610f2e565b80601f01602080910402602001604051908101604052809291908181526020018280546101e190610f2e565b801561022e5780601f106102035761010080835404028352916020019161022e565b820191906000526020600020905b81548152906001019060200180831161021157829003601f168201915b505050505081565b655af3107a400081565b60028060000154905081565b6000815111610290576040517f08c379a000000000000000000000000000000000000000000000000000000000815260040161028790610fac565b60405180910390fd5b600073ffffffffffffffffffffffffffffffffffffffff163373ffffffffffffffffffffffffffffffffffffffff161415610300576040517f08c379a00000000000000000000000000000000000000000000000000000000081526004016102f790611018565b60405180910390fd5b655af3107a40003414610348576040517f08c379a000000000000000000000000000000000000000000000000000000000815260040161033f906110aa565b60405180910390fd5b8173ffffffffffffffffffffffffffffffffffffffff163373ffffffffffffffffffffffffffffffffffffffff1614156103b7576040517f08c379a00000000000000000000000000000000000000000000000000000000081526004016103ae9061113c565b60405180910390fd5b6103c16002610998565b60006103cd60026109ae565b90508273ffffffffffffffffffffffffffffffffffffffff166108fc349081150290604051600060405180830381858888f19350505050158015610415573d6000803e3d6000fd5b507e761a47b226af421960fb95c4445dce72063ef3b5c531982d93a9fe2d89b6cb813385854260405161044c95949392919061115c565b60405180910390a1505050565b60018060000154905081565b600360205280600052604060002060009150905080600001549080600101805461048e90610f2e565b80601f01602080910402602001604051908101604052809291908181526020018280546104ba90610f2e565b80156105075780601f106104dc57610100808354040283529160200191610507565b820191906000526020600020905b8154815290600101906020018083116104ea57829003601f168201915b50505050509080600201805461051c90610f2e565b80601f016020809104026020016040519081016040528092919081815260200182805461054890610f2e565b80156105955780601f1061056a57610100808354040283529160200191610595565b820191906000526020600020905b81548152906001019060200180831161057857829003601f168201915b5050505050908060030180546105aa90610f2e565b80601f01602080910402602001604051908101604052809291908181526020018280546105d690610f2e565b80156106235780601f106105f857610100808354040283529160200191610623565b820191906000526020600020905b81548152906001019060200180831161060657829003601f168201915b5050505050908060040160009054906101000a900473ffffffffffffffffffffffffffffffffffffffff16908060050154905086565b600083511161069d576040517f08c379a000000000000000000000000000000000000000000000000000000000815260040161069490610fac565b60405180910390fd5b60008251116106e1576040517f08c379a00000000000000000000000000000000000000000000000000000000081526004016106d890611202565b60405180910390fd5b6000815111610725576040517f08c379a000000000000000000000000000000000000000000000000000000000815260040161071c9061126e565b60405180910390fd5b600073ffffffffffffffffffffffffffffffffffffffff163373ffffffffffffffffffffffffffffffffffffffff161415610795576040517f08c379a000000000000000000000000000000000000000000000000000000000815260040161078c90611018565b60405180910390fd5b61079f6001610998565b60006107ab60016109ae565b90506040518060c001604052808281526020018481526020018581526020018381526020013373ffffffffffffffffffffffffffffffffffffffff16815260200142815250600360008381526020019081526020016000206000820151816000015560208201518160010190805190602001906108299291906109e5565b5060408201518160020190805190602001906108469291906109e5565b5060608201518160030190805190602001906108639291906109e5565b5060808201518160040160006101000a81548173ffffffffffffffffffffffffffffffffffffffff021916908373ffffffffffffffffffffffffffffffffffffffff16021790555060a082015181600501559050507fa88aba73c371c5f7d31fa83978adf9e9aa574837df6303b316785892f014f7618184868533426040516108f196959493929190610de2565b60405180910390a150505050565b610995816040516024016109139190610b21565b6040516020818303038152906040527f41304fac000000000000000000000000000000000000000000000000000000007bffffffffffffffffffffffffffffffffffffffffffffffffffffffff19166020820180517bffffffffffffffffffffffffffffffffffffffffffffffffffffffff83818316178352505050506109bc565b50565b6001816000016000828254019250508190555050565b600081600001549050919050565b60008151905060006a636f6e736f6c652e6c6f679050602083016000808483855afa5050505050565b8280546109f190610f2e565b90600052602060002090601f016020900481019282610a135760008555610a5a565b82601f10610a2c57805160ff1916838001178555610a5a565b82800160010185558215610a5a579182015b82811115610a59578251825591602001919060010190610a3e565b5b509050610a679190610a6b565b5090565b5b80821115610a84576000816000905550600101610a6c565b5090565b600081519050919050565b600082825260208201905092915050565b60005b83811015610ac2578082015181840152602081019050610aa7565b83811115610ad1576000848401525b50505050565b6000601f19601f8301169050919050565b6000610af382610a88565b610afd8185610a93565b9350610b0d818560208601610aa4565b610b1681610ad7565b840191505092915050565b60006020820190508181036000830152610b3b8184610ae8565b905092915050565b6000819050919050565b610b5681610b43565b82525050565b6000602082019050610b716000830184610b4d565b92915050565b6000604051905090565b600080fd5b600080fd5b600073ffffffffffffffffffffffffffffffffffffffff82169050919050565b6000610bb682610b8b565b9050919050565b610bc681610bab565b8114610bd157600080fd5b50565b600081359050610be381610bbd565b92915050565b600080fd5b600080fd5b7f4e487b7100000000000000000000000000000000000000000000000000000000600052604160045260246000fd5b610c2b82610ad7565b810181811067ffffffffffffffff82111715610c4a57610c49610bf3565b5b80604052505050565b6000610c5d610b77565b9050610c698282610c22565b919050565b600067ffffffffffffffff821115610c8957610c88610bf3565b5b610c9282610ad7565b9050602081019050919050565b82818337600083830152505050565b6000610cc1610cbc84610c6e565b610c53565b905082815260208101848484011115610cdd57610cdc610bee565b5b610ce8848285610c9f565b509392505050565b600082601f830112610d0557610d04610be9565b5b8135610d15848260208601610cae565b91505092915050565b60008060408385031215610d3557610d34610b81565b5b6000610d4385828601610bd4565b925050602083013567ffffffffffffffff811115610d6457610d63610b86565b5b610d7085828601610cf0565b9150509250929050565b610d8381610b43565b8114610d8e57600080fd5b50565b600081359050610da081610d7a565b92915050565b600060208284031215610dbc57610dbb610b81565b5b6000610dca84828501610d91565b91505092915050565b610ddc81610bab565b82525050565b600060c082019050610df76000830189610b4d565b8181036020830152610e098188610ae8565b90508181036040830152610e1d8187610ae8565b90508181036060830152610e318186610ae8565b9050610e406080830185610dd3565b610e4d60a0830184610b4d565b979650505050505050565b600080600060608486031215610e7157610e70610b81565b5b600084013567ffffffffffffffff811115610e8f57610e8e610b86565b5b610e9b86828701610cf0565b935050602084013567ffffffffffffffff811115610ebc57610ebb610b86565b5b610ec886828701610cf0565b925050604084013567ffffffffffffffff811115610ee957610ee8610b86565b5b610ef586828701610cf0565b9150509250925092565b7f4e487b7100000000000000000000000000000000000000000000000000000000600052602260045260246000fd5b60006002820490506001821680610f4657607f821691505b60208210811415610f5a57610f59610eff565b5b50919050565b7f4d657373616765206d757374206e6f7420626520656d70747900000000000000600082015250565b6000610f96601983610a93565b9150610fa182610f60565b602082019050919050565b60006020820190508181036000830152610fc581610f89565b9050919050565b7f53656e646572206d757374206e6f7420626520656d7074790000000000000000600082015250565b6000611002601883610a93565b915061100d82610fcc565b602082019050919050565b6000602082019050818103600083015261103181610ff5565b9050919050565b7f436f66666565207072696365206d75737420626520302e30303031206574686560008201527f7200000000000000000000000000000000000000000000000000000000000000602082015250565b6000611094602183610a93565b915061109f82611038565b604082019050919050565b600060208201905081810360008301526110c381611087565b9050919050565b7f596f752063616e27742062757920636f6666656520666f7220796f757273656c60008201527f6600000000000000000000000000000000000000000000000000000000000000602082015250565b6000611126602183610a93565b9150611131826110ca565b604082019050919050565b6000602082019050818103600083015261115581611119565b9050919050565b600060a0820190506111716000830188610b4d565b61117e6020830187610dd3565b61118b6040830186610dd3565b818103606083015261119d8185610ae8565b90506111ac6080830184610b4d565b9695505050505050565b7f48617368206d757374206e6f7420626520656d70747900000000000000000000600082015250565b60006111ec601683610a93565b91506111f7826111b6565b602082019050919050565b6000602082019050818103600083015261121b816111df565b9050919050565b7f43617465676f7279206d757374206e6f7420626520656d707479000000000000600082015250565b6000611258601a83610a93565b915061126382611222565b602082019050919050565b600060208201905081810360008301526112878161124b565b905091905056fea2646970667358221220ead9a0192212cb1b01c3a6652d80b07bd208df38e8ea5da934a7f0107fa4a09964736f6c63430008090033",
  "linkReferences": {},
  "deployedLinkReferences": {}
}